:020000040800F2
:10000000C051002055020008592B0008FD1E0008B1
:10001000552B00083506000861320008000000007A
:10002000000000000000000000000000D12B0008CC
:100030005106000800000000612B0008FD2B00089D
:100040006F0200086F0200086F0200086F020008CC
:100050006F0200086F0200086F0200086F020008BC
:100060006F0200086F0200086F0200086F020008AC
:100070006F0200086F0200086F0200086F0200089C
:100080006F0200086F0200086F0200086F0200088C
:100090006F0200086F0200086F0200086F0200087C
:1000A0006F0200086F0200086F0200086F0200086C
:1000B0006F0200086F0200086F0200086F0200085C
:1000C0006F0200086F0200086F0200086F0200084C
:1000D0006F020008553200086F0200086F02000826
:1000E0006F0200086F0200086F0200086F0200082C
:1000F0006F0200086F0200086F0200086F0200081C
:100100006F0200086F0200086F0200086F0200080B
:100110006F0200086F0200086F020008DD2C000863
:100120006F0200086F020008390600086F0200081D
:100130006F02000800000000000000006F020008CD
:100140006F0200086F0200086F0200086F020008CB
:100150006F0200086F020008450600086F020008E1
:100160006F0200086F0200086F0200086F020008AB
:100170006F0200086F02000800000000000000008D
:100180006F0200086F02000800F002F800F052F859
:1001900014A696E8000CB244B344DA4501D100F04D
:1001A00049F8BAE80F000FA696E83000A5EB040561
:1001B00004EB0607AAEB0704A7F101074FEA1515A0
:1001C0004FEA3414A4F10104AC4201D300F032F838
:1001D00013F0010F18BFFB1A43F0010300F001F800
:1001E000DBE71847AC970000CC970000103A24BF1B
:1001F00078C878C1FAD8520724BF30C830C144BF8C
:1002000004680C6070470000704700000023002461
:1002100000250026103A28BF78C1FBD8520728BF16
:1002200030C148BF0B6070471FB508F098FC1FBD78
:1002300010B510BD00F0C8F91146FFF7F5FF03F047
:1002400007FE00F0E6F903B4FFF7F2FF03BC00F08D
:10025000E9F900000948804709480047FEE7FEE742
:10026000FEE7FEE7FEE7FEE7FEE7FEE7FEE7FEE766
:1002700004480549054A064B70470000C92C000890
:1002800089010008C04B0020C0510020C04D002053
:10029000C04D002053EA020C00F069802DE9F04BBC
:1002A0004FF00006002B1FBFB3FA83F503FA05F4E5
:1002B00024FA05F65E4012BF1643B2FA82F502FA3E
:1002C00005F4C5F120051EBF22FA05FC44EA0C0422
:1002D000203556EA044C4FEA144418BF641C4FF012
:1002E00000084FF00009904271EB030C39D300294C
:1002F00019BFB1FA81F701FA07F6B0FA80F700FAF0
:1003000007F6C7F120071EBF20FA07FC46EA0C06D5
:100310002037B6FBF4FCA7EB0507103F07F01F0BD7
:10032000CBF120062CFA06F60CFA0BFB44BFB346C1
:100330000026202FA4BF5E464FF0000B5BEA060CA0
:1003400008BF4FF0010B19EB0B0948EB0608ABFB9C
:10035000027C06FB02CC0BFB03CCC01B71EB0C0137
:10036000C1E70B46024641464846BDE8F08B13B54F
:10037000084318BF4FF0FF300146AFF30080BDE8DF
:100380001C40704753EA020C23D010B54C1084EA8D
:10039000530404D54042C1F1000138BF491E1B423D
:1003A00004D55242C3F1000338BF5B1EFFF772FF52
:1003B00014F0804F04D04042C1F1000138BF491E03
:1003C00014F0004F04D05242C3F1000338BF5B1E4B
:1003D00010BD13B540424FF0000070EB0104B8BFF0
:1003E000012001F0004100281CBF6FF000414FF0D8
:1003F000FF30AFF300801CBD40EA010310B59B073E
:100400000FD1042A0DD310C808C9121F9C42F8D07E
:1004100020BA19BA884201D9012010BD4FF0FF302F
:1004200010BD1AB1D30703D0521C07E0002010BD45
:1004300010F8013B11F8014B1B1B07D110F8013BD1
:1004400011F8014B1B1B01D1921EF1D1184610BDB2
:10045000032A40F2308010F0030C00F0158011F8F0
:10046000013BBCF1020F624498BF11F801CB00F8C8
:10047000013B38BF11F8013BA2F1040298BF00F81C
:1004800001CB38BF00F8013B11F0030300F062809C
:10049000083AC0F0088051F8043B083A51F804CB00
:1004A000A0E80810F5E7121D5CBF51F8043B40F8C6
:1004B000043BAFF30080D20724BF11F8013B11F8D1
:1004C00001CB48BF11F8012B24BF00F8013B00F815
:1004D00001CB48BF00F8012B704702F0FF0343EA4D
:1004E000032242EA024200F002B84FF0000200B5D7
:1004F000134694469646203922BFA0E80C50A0E847
:100500000C50B1F12001BFF4F7AF090728BFA0E8F4
:100510000C5048BF0CC05DF804EB890028BF40F8C0
:10052000042B08BF704748BF20F8022B11F0804F02
:1005300018BF00F8012B704770477047704710B51F
:1005400000F03AF8006810BD10B5044600F034F829
:10055000046010BD10B5203AC0F00B80B1E818500F
:10056000A0E81850B1E81850A0E81850203ABFF49D
:10057000F5AF5FEA027C24BFB1E81850A0E818503C
:1005800044BF18C918C0BDE810405FEA827C24BF90
:1005900051F8043B40F8043B08BF7047D20728BF1E
:1005A00031F8023B48BF11F8012B28BF20F8023B6D
:1005B00048BF00F8012B70470048704758000020E2
:1005C00000487047580000207546FFF7F9FFAE4617
:1005D00005006946534620F00700854618B020B54F
:1005E000FFF746FEBDE820404FF000064FF0000741
:1005F0004FF000084FF0000BAC46ACE8C009ACE887
:10060000C009ACE8C009ACE8C00921F007018D467B
:10061000704710B50446AFF300802046BDE8104097
:10062000FFF711BE01491820ABBEFEE7260002000D
:1006300070470000FEE7000040F2E410C2F2000044
:1006400000F066B840F24420C2F2000000F060B84A
:100650007047000072B600BFFEE7000070B5866DFF
:10066000044600F02BFB94F83510022928D10546EA
:100670002068216C026822F016020260426922F0B2
:100680008002426109B9A16C19B1016821F0080129
:100690000160016821F00101016000BF206800686D
:1006A000C00715D000F00AFB401B0628F6D3202017
:1006B0006065032084F83500002184F8341070BD93
:1006C000802060650120002184F8341070BD00BFD7
:1006D000E06D3F2101FA00F0B060012084F83500A0
:1006E0000020002184F8341070BD000090F835100F
:1006F000022909D1052180F835100068016821F030
:100700000101016000207047802141650120704790
:10071000F0B581B00021009140F20801C2F2000161
:100720000B68D0E9166148F2B51537680822C1F6A2
:100730004E358A403A42A3FB05350CD003681C684D
:10074000640708D51C6824F004041C60B260426D84
:1007500042F00102426501228A403A4208D0036811
:100760005B691B0604D5B260426D42F0020242652D
:1007700004228A403A4208D003681B689B0704D5CC
:10078000B260426D42F00402426510228A403A4251
:1007900019D001680B681B0715D5B2600B680A6891
:1007A0005B0309D4D20509D40A6822F008020A6062
:1007B000016C29B907E000BF110341D4016C11B1EC
:1007C000044688472046C26D202101FA02F33B42CD
:1007D00043D001680F68FF063FD5B36090F83570CD
:1007E0000B68052F1CD123F016030B604B6923F017
:1007F00080034B61036C0BB9836C1BB10B6823F056
:1008000008030B603F219140B160012180F8351051
:10081000016D0022002980F8342054D158E000BF37
:100820000A685B0310D4D20512D40A6822F01002C1
:100830000A60012180F83510002180F8341007E0AB
:10084000816C0029BCD1BEE7110301D4416C00E0EA
:10085000C16B11B1044688472046416DC1B3416D5B
:10086000C9072ED0052180F835100168AA0A0B6847
:1008700023F001030B60009B0133934200931AD8CD
:100880000B68DB0717D0009B01339342009312D80B
:100890000B68DB070FD0009B0133934200930AD80B
:1008A0000B68DB0707D0009B01339342009302D80B
:1008B0000B68DB07DFD1012180F83510002180F8BB
:1008C0003410C16C21B101B0BDE8F040084700BF51
:1008D00001B0F0BD2DE9F041044600F0EFF9ECB1B4
:1008E0000546022084F835000020216884F8340091
:1008F000086820F00100086021680868C00711D06E
:1009000000F0DCF9401B0528F6D90325202303203D
:10091000636584F83550BDE8F08100BF0120BDE873
:10092000F08100BF086848F23F02CFF21002D4E91C
:10093000013500EA020C04F10C0898E8C10143EA11
:100940000C032B431843D4E9072E3043384310439C
:10095000626A40EA0E00042A40EA08031CD1206BB8
:10096000D4E90A2E40EA0E00184308604869BEF137
:10097000000F20F0030040EA020040F0040C11D008
:10098000B8F5005F36D0B8F1000F45D1022A46D045
:10099000012A3BD032B942E00B60486920F00700E1
:1009A00040EA020C01F0F8004AF6AB221038CAF611
:1009B000AA22A0FB02231A0948F69643C1F814C0E4
:1009C000C0F600039A5C40F2FF335F284FF03F000F
:1009D00021EA030100FA02F088BF0431C4E91612CB
:1009E0008860002301250020636584F83550BDE848
:1009F000F08100BF032AD5D8012540230120DFE87C
:100A000002F0030E030500BF82E700BFAEF1C07025
:100A1000B0FA80F0400904E0032A04D3C2D1CEF337
:100A200000600028BED0012540230120636584F8C2
:100A30003550BDE8F081000090F834C0BCF1010FE2
:100A400004BF0220704770B54FF0010C80F834C02D
:100A5000D0F858E090F835C0BCF1010F38D14FF014
:100A6000020C80F835C04FF0000CC0F854C0D0F82C
:100A700000C08468056CC06DDCF80060402C26F472
:100A80008026CCF80060CCF804300B4604BF134637
:100A90000A463F2101FA00F0CCF80830CCF80C20CF
:100AA000CEF80800DCF8000040F01600CCF800009A
:100AB0002DB1DCF8000040F00800CCF80000DCF8B4
:100AC000000040F00100CCF80000002070BD00BF25
:100AD000002180F83410022070BD0000B0B504463B
:100AE00000F0ECF8054640F20000C2F20000007889
:100AF000611C18BF044400BF00F0E0F8401BA04296
:100B0000FAD3B0BD2DE9F04F83B000F1200200F11F
:100B10003E4741F60045009207F1FF77C4F2020517
:100B200008224FEAB726A84208BF072200254FF047
:100B300000084FF00009072E38BF4FEAB722019294
:100B40000AE000BF09F1010908F10208B9F1100F2C
:100B500005F1040500F0A2800F68012202FA09FEE7
:100B600017EA0E0AEED0D1F804C003220CF00307F6
:100B70007E1E02FA08F4012E6FEA040B12D8846874
:100B8000CE6804EA0B0406FA08F63443846044682D
:100B900024EA0E06CCF3001404FA09F42643466056
:100BA00004E000BF032F01D103271EE0C6688C6854
:100BB00006EA0B0604FA08F42643022FC66014D195
:100BC0006FF00302009E02EA590756F807C005F0CD
:100BD0001C040F220B69A2402CEA0202A3401A4314
:100BE000F251D1F804C00CF00307026807FA08F3C9
:100BF00002EA0B021A431CF4403F0260A2D000221A
:100C000043F644030292C4F202031A6843F6004416
:100C100042F480421A601A68C4F2010402F480426D
:100C20000292029A29F003024FF6084C2244CFF6B2
:100C3000FF7C52F80C3005F00C070F26BE40B34382
:100C4000019E06FA07F73B4342F80C30A2684B6856
:100C500042EA0A0743F60C4CDE0258BF22EA0A07B2
:100C6000A760C4F2010CDCF800209E0242EA0A07E9
:100C700058BF22EA0A07CCF8007062689E0342EA75
:100C80000A0758BF22EA0A0767602268DB0342EAC4
:100C90000A0758BF22EA0A07276053E703B0BDE8F6
:100CA000F08F00000069084018BF01207047000065
:100CB000002A08BF090481617047000044F2C04067
:100CC000C2F200000068704740F2000044F2C041E8
:100CD000C2F20000C2F2000100780A681044086005
:100CE0007047000080B543F60040C4F2020001687E
:100CF00041F400710160016841F4806101600168A4
:100D000041F480710160032000F0C2F80F2000F070
:100D100005F800F05DF8002080BD000070B586B0D9
:100D2000002543F640010195C4F202010A68044619
:100D300042F020020A60096801A801F02001019137
:100D40000199694600F066F9049E002E18BF01263D
:100D500000F080F94DF68361B040C4F21B31A0FB76
:100D600001014FF0FF3000EB914140F2A42041F22D
:100D70000042C2F20000C4F2000240F2E733C0E9D0
:100D80000021C0E902530561856100F09DFB08B1B7
:100D900006B070BD40F2A420C2F2000000F0C4FB17
:100DA0000028F5D1372000F035F80F2C0CD837206B
:100DB0002146002200F040F840F204010020C2F277
:100DC00000010C6006B070BD012006B070BD0000CF
:100DD00082B0002043F640010190C4F202014A684B
:100DE00042F480424A604A6802F480420192019AC9
:100DF00000900868002240F08050086008680F21C9
:100E000000F08050009000986FF0010002B000F0F8
:100E100013B80000002848BF704700F01F010122EE
:100E200002FA01F11C2202EAD0004EF20012CEF2C8
:100E3000000281507047000010B54EF60C5CCEF2F7
:100E4000000CDCF80030C3F3022E8EF00704042CF3
:100E500028BF0424BEF103034FF0FF3E0EFA04F452
:100E600038BF0023A14399400EFA03F39A4311437C
:100E700000F00F0200F160430901043A03F56443F6
:100E80006244002848BF02F10C03197010BD000035
:100E90004EF60C51CEF200010A684FF6FF031A40DD
:100EA00060F30A2242F0806040F0FD7008607047F5
:100EB000002804BF012070472DE9F04143F60808DF
:100EC000C4F202080446D8F8F8030D4600F0070003
:100ED000814207D988F8F853D8F8F80300F00700E2
:100EE000A84277D12068810717D5410705D5D8F8E2
:100EF000001041F4E051C8F80010010705D5D8F8FA
:100F0000001041F46041C8F80010D8F80010A26841
:100F100021F0F0011143C8F80010C00740D1D8F803
:100F2000F80300F00700854207D288F8F853D8F894
:100F3000F80300F00700A8424CD12068410707D50C
:100F4000D8F80010E26821F4E0511143C8F800100D
:100F5000000708D5D8F80000216920F4604040EA75
:100F6000C100C8F8000000F09DF8D8F8001048F65D
:100F70007E42C1F30311C0F60002515C40F2080248
:100F800020FA01F140F20400C2F200000068C2F24F
:100F900000021160FFF7C2FE0020BDE8F08100BF33
:100FA0006068811E022907D258F8081C89015CBFBD
:100FB0000120BDE8F08111E0012807D158F8081C94
:100FC00089035CBF0120BDE8F08107E058F8081CE8
:100FD000890703D40120BDE8F08100BFD8F80010D4
:100FE00021F003010843C8F80000FFF767FE06463A
:100FF00041F28837D8F80000616800F00C00B0EBCF
:10100000810F8CD0FFF75AFE801BB842F2D9032023
:10101000BDE8F0810F22026043F60802C4F202022A
:10102000136803F003034360136803F0F003836065
:10103000136803F4E053C360D2F800C04FF4E053E8
:1010400003EADC030361D2F8F80300F0070008604C
:101050007047000040F2080043F60801C2F20000A9
:10106000C4F202010068096848F68E42C1F3822189
:10107000C0F60002515CC8407047000040F2080012
:1010800043F60801C2F20000C4F2020100680968D8
:1010900048F68E42C1F34231C0F60002515CC840AE
:1010A0007047000010B543F60404C4F202046168FE
:1010B000C1F3810142F20040C0F2F400DFE801F028
:1010C00002040A0210BD00BF47F64000C0F27D10C6
:1010D00010BD00BF206821682368490247F640011F
:1010E000C0F27D1100F03F02C3F388105CBF42F2F2
:1010F0000041C0F2F401A1FB00010023FFF7CAF890
:1011000021680222C1F3014102EB4101B0FBF1F081
:1011100010BD0000002804BF012070472DE9F041F8
:1011200082B00446007843F60006C007C4F2020607
:101130000CD0B06800F00C00042840F081803068CA
:10114000800303D56068002800F06881207880075C
:101150001BD5B06810F00C0F09D0B06800F00C007F
:10116000082840F087807068400200F18380306872
:10117000800703D5E068012840F05081306821697C
:1011800020F0F80040EAC10030602078000713D456
:10119000207840072AD4A569002D00F03A81B06874
:1011A00000F00C00082840F0A580012D40F00E81D1
:1011B000012002B0BDE8F0816069002800F0828063
:1011C0000020C4F247200121C0F8801EFFF776FD01
:1011D000054600BF706F8007DAD4FFF76FFD401B34
:1011E0000228F7D9032002B0BDE8F081306C5FEA35
:1011F000C0080AD400200190306C40F08050306468
:10120000306C00F080500190019847F20007C4F262
:1012100000073868C00547D4386840F480703860EB
:10122000FFF74CFD054600BF3868C0053CD4FFF70A
:1012300045FD401B0228F7D9032002B0BDE8F0812C
:10124000B06800F00C00082803D1706840023FF538
:1012500076AF61683068B1F5803F07D0B1F5A02F57
:1012600040F09A8040F480203060306840F4803054
:1012700030609AE0E068002840F20000C4F24720A5
:101280005CD001210160FFF719FD05463068800739
:101290003FF574AFFFF712FD401B0228F6D903207B
:1012A00002B0BDE8F08100BFA168306F012905D010
:1012B000052955D140F004003067306F40F001003F
:1012C000306756E00020C4F247200021C0F8801E9D
:1012D000FFF7F4FC054600BF706F80077FF558AF3D
:1012E000FFF7ECFC401B0228F6D9032002B0BDE852
:1012F000F08100BF0027C4F2472700203866FFF7BF
:10130000DDFC022D05460DD13068800140F18A8058
:10131000FFF7D4FC401B02284FF00300F4D902B0C1
:10132000BDE8F0813068800173D5FFF7C7FC401B32
:1013300002284FF00300F5D9F1E700BF002101605A
:10134000FFF7BCFC054600BF306880077FF51DAF86
:10135000FFF7B4FC401B02284FF00300F4D9DEE78E
:1013600020F001003067306F002920F00400306762
:101370007AD0FFF7A3FC054641F28837306F80072B
:1013800000F18480FFF79AFC401BB842F6D9032095
:1013900002B0BDE8F08100BF20F4803030603068DA
:1013A000002920F4802030607AD0FFF787FC0546C2
:1013B000306880033FF5CAAEFFF780FC401B64280D
:1013C000F6D9032002B0BDE8F08100BF7068E16982
:1013D00000F480028A4221D1216A00F03F028A4251
:1013E0001CD147F6C071626A0140B1EB821F15D172
:1013F000A16A4FF6FF73C903994300F44032A1F587
:1014000080318A420AD1E16A00F07060B0EB016F6E
:1014100004D1002002B0BDE8F08100BF012002B07D
:10142000BDE8F08104F11C052FCD084340EA82108D
:10143000D9034FF6FF729143A1F5803140EA056070
:101440000843706001203866FFF738FC044600BF8F
:1014500030688001DDD4FFF731FC001B02284FF01B
:101460000300F5D95BE700BFFFF728FC054641F212
:10147000883700BF306F800708D5FFF71FFC401B7F
:10148000B8424FF00300F5D949E700BFB8F1000FAB
:101490003FF581AE306C20F0805030647BE600BFB9
:1014A000FFF70CFC054600BF306880037FF54EAEA9
:1014B000FFF704FC401B64284FF00300F4D92EE72B
:1014C0007047000070470000002804BF01207047EB
:1014D00010B5044690F83D0028B9002084F83C007F
:1014E000204600F01FF8022084F83D002068211DEE
:1014F00001F0FAFB012084F8460084F83E0084F8ED
:101500003F0084F8400084F8410084F8420084F8E9
:10151000430084F8440084F8450084F83D0000202E
:1015200010BD00007047000090F83D1001291CBF5D
:1015300001207047022180F83D10006841F2FF72DF
:10154000C168C4F20002904241F00101C1600DDCAB
:1015500040F2FF71C4F20001884215DCB0F1804F07
:101560002AD040F20041C4F2000123E040F2FF31F2
:10157000C4F20101884213DC41F60001C4F200010B
:10158000884219D0002113E040F60001C4F20001A6
:10159000884211D040F60041C4F200010AE000BFC9
:1015A00044F20001C4F20101884205D040F200413A
:1015B000C4F20101884206D1816801F007010629C1
:1015C00004BF00207047016841F001010160002064
:1015D000704700007047000070B504460068C56899
:1015E0000669B10716D515F0020113D06FF002019C
:1015F0000161012121778069800703D02046FFF730
:10160000E9FF05E0204600F08FF8204600F08EF854
:1016100000202077700719D515F0040016D0206837
:101620006FF00401016102212177806910F4407F8D
:1016300004D02046FFF7CEFF06E000BF204600F0B2
:1016400073F8204600F072F800202077300717D595
:1016500015F0080014D020686FF008010161042122
:101660002177C069800703D02046FFF7B3FF05E06C
:10167000204600F059F8204600F058F80020207766
:10168000F00619D515F0100016D020686FF0100183
:10169000016108212177C06910F4407F04D0204601
:1016A000FFF798FF06E000BF204600F03DF8204617
:1016B00000F03CF800202077F00718BF15F001007B
:1016C00002D1300609D412E020686FF001010161F7
:1016D000204600F02DF8300609D515F0800006D020
:1016E00020686FF0800101612046FFF7E9FE700677
:1016F00009D515F0400006D020686FF04001016167
:10170000204600F01FF8B00658BF70BD15F020004D
:1017100008D021686FF0200220460A61BDE87040C1
:10172000FFF7D0BE70BD000070470000704700009A
:10173000006841F20041C4F20001884218BF7047BE
:10174000FFF7C2BA70470000704700007047000002
:1017500090F8411090F842000843C0B27047000072
:10176000B0B582B001680A68CC684B6902F02F05F9
:10177000202D04F0200505D125B102B0BDE8B04010
:1017800001F074BC5FEA027C1EBF03F0010E04F49A
:10179000907313EB0E0341D1036BD50618D5012BC3
:1017A00016D114F0100313D0002201920A6801929E
:1017B0004A680192019A496949064BD4818DC28DCC
:1017C000C38D002B18BF914240F0F48102B0B0BD30
:1017D00013062DD514F080032AD090F84120212A39
:1017E000F4D18268B2F5805F03D10269002A00F06B
:1017F0006782026A531C036212784A60C28C013A03
:101800001304C284E2D1C86820F08000C860C868B0
:1018100040F04000C86002B0B0BD00BFD30718BFA1
:1018200014F4807340F0D080530700F1D380D8E0E7
:101830005206CBD514F04002C8D0CA6822F040024C
:10184000CA60202180F8411002B0BDE8B04000F02D
:1018500051BB00BFC16B0A68526893B2002BB5D070
:10186000858DAB42B2D2C285C969B1F5807F00F0E7
:10187000A080016851E8031F026821F4807142E8EA
:101880000313DBB1016851E8031F026821F4807182
:1018900042E8031393B1016851E8031F026821F481
:1018A000807142E803134BB1016851E8031F0268DD
:1018B00021F4807142E80313002BDAD1016851E86A
:1018C000051F026821F0010142E80513BBB301685E
:1018D00051E8051F026821F0010142E8051373B3C6
:1018E000016851E8051F026821F0010142E8051373
:1018F0002BB3016851E8051F026821F0010142E89D
:101900000513002BDAD11AE0016851E8051F0268BF
:1019100021F0400142E80513DBB1016851E8051FE1
:10192000026821F0400142E8051393B1016851E8D3
:10193000051F026821F0400142E805134BB1016820
:1019400051E8051F026821F0400142E80513002B11
:10195000DAD1202180F8421000210163016851E8AA
:10196000031F026821F0100142E80313DBB1016894
:1019700051E8031F026821F0100142E8031393B1FC
:10198000016851E8031F026821F0100142E80313C7
:101990004BB1016851E8031F026821F0100142E8D1
:1019A0000313002BDAD1C16B04460846FEF756FE3E
:1019B000204602214163818DC28D891A89B202B00D
:1019C000BDE8B040FFF7C0BE436C43F00103436481
:1019D000530706D5BEF1000F03D0436C43F002035A
:1019E0004364930706D5BEF1000F03D0436C43F068
:1019F00004034364BCF1000F06D55EEA050303D07F
:101A0000436C43F008034364436C002B3FF4DEAEA9
:101A1000920605D525B1044601F028FB2168204631
:101A20004969426C01F0400102F00802891800F097
:101A3000B98000BF016851E8031F026821F490716A
:101A400042E80313BBB3016851E8031F026821F4A5
:101A5000907142E8031373B3016851E8031F0268F1
:101A600021F4907142E803132BB3016851E8031F7E
:101A7000026821F4907142E80313002BDAD11AE0D6
:101A8000016851E8051F026821F0010142E80513D1
:101A9000DBB1016851E8051F026821F0010142E84D
:101AA000051393B1016851E8051F026821F0010197
:101AB00042E805134BB1016851E8051F026821F0A7
:101AC000010142E80513002BDAD1016B012924D171
:101AD000016851E8031F026821F0100142E8031376
:101AE000DBB1016851E8031F026821F0100142E8F0
:101AF000031393B1016851E8031F026821F010013C
:101B000042E803134BB1016851E8031F026821F05A
:101B1000100142E80313002BDAD1202180F8421093
:101B20000021016301684969490640F1C3800168E9
:101B300051E8051F026821F0400142E80513DBB1BE
:101B4000016851E8051F026821F0400142E80513D1
:101B500093B1016851E8051F026821F0400142E895
:101B600005134BB1016851E8051F026821F04001DF
:101B700042E80513002BDAD1C16B002900F09A80EE
:101B800042F62D62C0F60002044608460A65FEF7DA
:101B9000ADFD00283FF41AAEE06B016D02B0BDE868
:101BA000B04008470446FFF7D1FD0020606402B052
:101BB000B0BD00BF891A00BF026852E8032F036856
:101BC00022F4907243E80325BDB3026852E8032F64
:101BD000036822F4907243E8032575B3026852E863
:101BE000032F036822F4907243E803252DB30268A3
:101BF00052E8032F036822F4907243E80325002D76
:101C0000DAD11AE0026852E8052F036822F00102D7
:101C100043E80525DDB1026852E8052F036822F08C
:101C2000010243E8052595B1026852E8052F0368D3
:101C300022F0010243E805254DB1026852E8052F64
:101C4000036822F0010243E80525002DDAD12022A5
:101C500080F8422000220263026852E8032F0368E2
:101C600022F0100243E80325DDB1026852E8032F99
:101C7000036822F0100243E8032595B1026852E898
:101C8000032F036822F0100243E803254DB10268D8
:101C900052E8032F036822F0100243E80325002DC9
:101CA000DAD1022289B2426302B0BDE8B040FFF748
:101CB0004BBD00BF02B0BDE8B040FFF747BD00BF5D
:101CC000026A32F8023B6FF35F234B60026295E5D4
:101CD000002804BF0120704710B5044690F8410069
:101CE00028B9002084F84000204600F021F8242084
:101CF00084F841002068C16821F40051C160204689
:101D000001F034FA2068016921F4904101614169D0
:101D100021F02A014161C16841F40051C1600020F5
:101D20002021606484F8411084F84210606310BD83
:101D30002DE9F04387B0044641F200002168C4F267
:101D40000100002681420696CDE9046603960296BC
:101D500002D007B0BDE8F08343F630010196C4F22B
:101D600002014A6946F2404842F010024A614A695B
:101D700000F5704002F010020192019A01960A6883
:101D8000C4F2020842F001020A60096801F0010190
:101D9000019101994FF4C06102910221CDE903162E
:101DA000032105910721069102A9FEF7ABFE40F23F
:101DB000E415C2F200054FF000674FF48069284631
:101DC000C5E90087C5E90266C5E90496C5E9066666
:101DD000C5E90866FEF77EFD002818BFFEF73AFC4D
:101DE000E563AC6340F2442508F17800C2F20005D7
:101DF0004021C5E9000705F10800002280E806023D
:101E00002846C5E90522C5E907226A62FEF762FD98
:101E1000002818BFFEF71EFC252005210022A5631F
:101E2000AC63FFF709F82520FEF7F4FF07B0BDE823
:101E3000F083000070470000B0B590F84140202CBE
:101E40001CBF0220B0BD134600294FF0010218BF8D
:101E5000002B01D11046B0BD0022212401628384F1
:101E6000C384426480F84140D0F838C042F6B57E61
:101E700043F26505C0F6000EC0F600050468CCE923
:101E80000FE542F63965C0F60005CCE91352221D74
:101E900004466046FEF7D0FD216820466FF0400200
:101EA0000A6000BF016851E8051F026841F0800127
:101EB00042E80513DBB1016851E8051F026841F0F3
:101EC000800142E8051393B1016851E8051F0268DB
:101ED00041F0800142E805134BB1016851E8051F4C
:101EE000026841F0800142E80513002BDAD100229C
:101EF0001046B0BD7047000070470000FEE70000CC
:101F0000B0B586B080200190112040F200440290CC
:101F10000120C4F2020403900220049001A920468B
:101F2000FEF7F0FD2046802100220025FEF7C0FECE
:101F300001950198132817D8019801300190019854
:101F4000132811D8019801300190019813280BD85B
:101F50000198013001900198132805D801980130AB
:101F6000019001981428E7D3204640210122FEF772
:101F70009FFE01950198132818D800BF01980130E1
:101F800001900198132811D801980130019001980F
:101F900013280BD80198013001900198132805D817
:101FA00001980130019001981428E7D32046402180
:101FB00000220025FEF77CFE01950198132817D812
:101FC0000198013001900198132811D8019801302F
:101FD0000190019813280BD80198013001900198C5
:101FE000132805D801980130019001981428E7D3EF
:101FF000204680210122FEF75BFE06B0B0BD000046
:1020000080B586B00020019043F63000C4F2020093
:10201000016841F002010160006801A900F00200BE
:1020200001900198C020019011200290012003909E
:102030000220049040F20040C4F20200FEF762FD6C
:1020400000F008FA06B080BDB0B586B080200190DF
:10205000112040F2004402900120C4F202040390D7
:102060000220049001A92046FEF74CFD2046802165
:102070000122FEF71DFE002501950198132817D8AF
:102080000198013001900198132811D8019801306E
:102090000190019813280BD8019801300190019804
:1020A000132805D801980130019001981428E7D32E
:1020B000204640210122FEF7FBFD019501981328DF
:1020C00018D800BF0198013001900198132811D849
:1020D000019801300190019813280BD80198013024
:1020E00001900198132805D80198013001900198BA
:1020F0001428E7D32046402100220024FEF7D8FD13
:1021000001940198132817D8019801300190019883
:10211000132811D8019801300190019813280BD889
:102120000198013001900198132805D801980130D9
:10213000019001981428E7D306B0B0BD2DE9F04313
:1021400085B0804640F200458020C4F20205009030
:1021500001204FF00009029069462846CDF804900E
:10216000FEF7D0FC0027002407E000BF780040EA1B
:102170000607072C04F1010450D228464021012211
:10218000FEF796FDCDF800900098132818D800BFF0
:102190000098013000900098132811D80098013061
:1021A0000090009813280BD80098013000900098F8
:1021B000132805D800980130009000981428E7D320
:1021C00028468021FEF76EFD0646002828464FF07F
:1021D00040014FF0000218BF0126FEF769FDCDF85F
:1021E000009000981328C1D8009801300090009802
:1021F0001328BBD800980130009000981328B5D858
:1022000000980130009000981328AFD80098013052
:10221000009000981428E7D3A8E700BFB8F1000F9A
:1022200006D0FFF76DFEF8B205B0BDE8F08300BF41
:10223000FFF70AFFF8B205B0BDE8F083F0B585B04E
:10224000044680200090112040F2004501900120BA
:10225000C4F2020502900220039069462846FEF768
:1022600051FC2846402100220026FEF721FD0027D0
:1022700005E000BF6400072F07F1010768D2E0B254
:10228000C20928468021FEF713FD00960098132806
:1022900018D800BF0098013000900098132811D87A
:1022A000009801300090009813280BD80098013056
:1022B00000900098132805D80098013000900098ED
:1022C0001428E7D3284640210122FEF7F1FC0096AE
:1022D0000098132818D800BF00980130009000988B
:1022E000132811D8009801300090009813280BD8BB
:1022F0000098013000900098132805D8009801300C
:10230000009000981428E7D3284640210022FEF7C9
:10231000CFFC009600981328ACD800BF009801307D
:10232000009000981328A5D80098013000900098DC
:1023300013289FD80098013000900098132899D84E
:1023400000980130009000981428E7D392E700BF6E
:1023500005B0F0BDB0B586B080200190112040F2EC
:10236000004402900120C4F2020403900220049071
:1023700001A92046FEF7C6FB204680210122FEF778
:1023800097FC204640210122FEF792FC0025019592
:102390000198132818D800BF0198013001900198C6
:1023A000132811D8019801300190019813280BD8F7
:1023B0000198013001900198132805D80198013047
:1023C000019001981428E7D3204680210022FEF7CF
:1023D0006FFC01950198132818D800BF01980130AF
:1023E00001900198132811D80198013001900198AB
:1023F00013280BD80198013001900198132805D8B3
:1024000001980130019001981428E7D3204640211B
:1024100000220024FEF74CFC01940198132817D8E1
:102420000198013001900198132811D801980130CA
:102430000190019813280BD8019801300190019860
:10244000132805D801980130019001981428E7D38A
:1024500006B0B0BDB0B586B080200190112040F22A
:10246000004402900120C4F2020403900220049070
:1024700001A92046FEF746FB2046802100220025C8
:10248000FEF716FC204640210122FEF711FC0195C3
:102490000198132818D800BF0198013001900198C5
:1024A000132811D8019801300190019813280BD8F6
:1024B0000198013001900198132805D80198013046
:1024C000019001981428E7D3204680210122FEF7CD
:1024D000EFFB01950198132818D800BF019801302F
:1024E00001900198132811D80198013001900198AA
:1024F00013280BD80198013001900198132805D8B2
:1025000001980130019001981428E7D306B0B0BDBE
:10251000B0B586B040F200448020C4F202040190BD
:1025200001200025039001A920460295FEF7EAFA52
:10253000204640210122FEF7BBFB0195019813289C
:1025400018D800BF0198013001900198132811D8C4
:10255000019801300190019813280BD8019801309F
:1025600001900198132805D8019801300190019835
:102570001428E7D3FB2500BF20468021FEF792FBFD
:1025800030B1013DF8D1FFF765FF012006B0B0BDC5
:102590002046402100220024FEF78AFB0194019886
:1025A000132817D80198013001900198132811D8E9
:1025B000019801300190019813280BD8019801303F
:1025C00001900198132805D80198013001900198D5
:1025D0001428E7D3002006B0B0BD0000B0B50C460B
:1025E0000546FFF70DFD01F0C3FC00285ED12878F9
:1025F00002F0AEFE00281CBF6FF00100B0BD68788D
:1026000001F048FC00281CBF6FF00200B0BD6888D4
:1026100002F0FAFD38B9287902F02EFC18B9E888E2
:1026200002F04AFD10B16FF00300B0BD287A18B176
:1026300002F09CFD0028F6D1207868B300F09EFFE0
:1026400000281CBF6FF00400B0BD05F1090001F0C7
:1026500091FB01F0DFF800281CBF6FF00500B0BD52
:10266000608800F03BFE00281CBF6FF00600B0BD84
:10267000E088411E89B2C72902D801F065F840B947
:10268000207958B1012002F067FD207901F094F81B
:1026900020B16FF00700B0BD0020B0BD012002F0F6
:1026A0009BFC002818BF6FF00900B0BD6420FEF746
:1026B00015FA00F0FDFD0000F0B581B02DED0E8B98
:1026C0008CB004460DF10D070DF10E060DF12A0038
:1026D00009A905AA04ABCDE9006700F05BFF38B19A
:1026E0004FF0FF300CB0BDEC0E8B01B0F0BD00BF61
:1026F00040F21400C2F20000C18800799FED843AD4
:1027000001EE100ABDF92A0000EE101A02EE100ABE
:10271000B8EEC22AB8EE400A22EE032ABDF9240020
:1027200022EE002A84ED002A02EE100AB8EEC22A38
:10273000B8EE411ABDF92C1022EE032A22EE012A2E
:1027400084ED032A02EE101AB8EEC22ABDF9263033
:1027500022EE032A22EE002A84ED012A02EE103A2C
:10276000B8EEC22ABDF92E2022EE032A22EE012A5B
:1027700084ED042A02EE102AB8EEC22ABDF92870B0
:1027800022EE032A22EE000A84ED020A00EE107AFD
:10279000B8EEC00ABDF80E7020EE030A20EE010A62
:1027A000F80584ED050A40F19A8005A890ED000A2D
:1027B00090ED011A9FED574A90ED022AB8EEC00A3B
:1027C00090ED033A20EE049AB8EEC10A20EE04CA56
:1027D000B8EEC20A20EE04AAB8EEC30A20EE04BA8C
:1027E000B8EE000A2CEE00DA39EE098A28EE0A0A61
:1027F0002DEE0B1A31EE000A10EE100A06F03EF92B
:1028000041EC100B04F0D4FE51EC100B9FED3E0B8D
:1028100055EC106B32462B4605F06CFE05F0ECFBD8
:102820003AEE0AEA28EE0C0A2EEE0B1A31EE000AF6
:10283000A06110EE100A06F021F92EEE0A0A2DEE24
:102840000C1A31EE400AB7EE001A30EE010A41ECE4
:10285000180B10EE100A06F011F941EC110BB0EE56
:10286000480AF0EE680A05F0BFF951EC100B324649
:102870002B4605F03FFE05F0BFFB2CEE0A0A29EEC1
:102880000B1A31EE000A30EE000AE06110EE100A79
:1028900006F0F4F82CEE0C0A29EE091A31EE000AC3
:1028A0002AEE0A1A30EE410A2BEE0B1A30EE410ADC
:1028B00041EC180B10EE100A06F0E0F841EC110B99
:1028C000B0EE480AF0EE680A05F08EF951EC100BF4
:1028D00032462B4605F00EFE05F08EFB20629DF879
:1028E0000D00278705AF84F83A008DCF049904F1D5
:1028F000240C8CE88D00002061630CB0BDEC0E8BC5
:1029000001B0F0BD00BF00BF00000020DCA54C40BE
:10291000000000380000803080B586B003A869460A
:1029200001F09AFE06B080BDF0B581B01D46144698
:102930000E460746FFF70EFD7F00F8B2FFF77EFC5C
:10294000FFF7E6FD78B93046FFF778FCFFF7E0FDCA
:1029500048B9FFF7FFFC47F00100C0B2FFF76EFC7B
:10296000FFF7D6FD30B10124FFF774FD204601B01A
:10297000F0BD00BF64B1013D013CE6B23046002E1F
:1029800018BF0120FFF7DAFB002E05F8010FF3D185
:102990000024FFF75FFD204601B0F0BDF0B581B027
:1029A0001C4615460E460746FFF7D4FC7800C0B219
:1029B000FFF744FCFFF7ACFD28B93046FFF73EFCBB
:1029C000FFF7A6FD30B10124FFF744FD204601B01A
:1029D000F0BD00BF55B100BF14F8010BFFF72EFC8E
:1029E000FFF796FD0028EED1013DF5D10024FFF759
:1029F00031FD204601B0F0BD80B582B000200190CD
:102A000043F63000C4F202000168002241F4800164
:102A100001600068052100F48000019001983A20CF
:102A2000FEF70AFA3A20FEF7F5F9462005210022C2
:102A3000FEF702FA462002B0BDE88040FEF7EAB990
:102A400010B542F6F53048F6B842C0F60000C0F6C0
:102A50000002002102F078FD40F2B804C2F2000446
:102A6000206046F2590049F6E002C0F60000C0F6C8
:102A70000002002102F068FD606046F27D0049F628
:102A80000412C0F60000C0F60002002102F05CFD56
:102A9000A06010BDB0B586B0002043F630010590AF
:102AA000CDE90300CDE901000090C4F202010A68FB
:102AB00040F2004442F080020A600A68C4F2020454
:102AC00002F080020092009A00900A68C02542F04D
:102AD00001020A600A6802F001020092009A009066
:102AE0000868002240F0020008600868C02100F079
:102AF0000200009000982046FEF7DAF811200290BC
:102B0000012003900320049001A920460195FDF7C0
:102B1000F9FF06B0B0BD000080B540F2EC2041F2F4
:102B20000001C2F20000C4F2010100234FF00C0CBE
:102B30004FF4E13280E80E00C0E90333C0E905C379
:102B4000C361FFF7C5F8002808BF80BDBDE880401D
:102B5000FDF780BDFEE70000FEE70000000000007A
:102B6000EFF30980BFF36F8F154B1A681EF0100F3B
:102B700008BF20ED108A20E9F04F10602DE9090010
:102B80004FF0500080F31188BFF34F8FBFF36F8F6A
:102B900003F016FE4FF0000080F31188BDE8090035
:102BA00019680868B0E8F04F1EF0100F08BFB0ECCD
:102BB000108A80F30988BFF36F8F704700BF00BF92
:102BC000C400002000000000000000000000000021
:102BD000074B19680868B0E8F04F80F30988BFF325
:102BE0006F8F4FF0000080F31188704700BF00BF67
:102BF000C4000020012002F05DFCFBE780B54EF22E
:102C00001000CEF20000006804F0C4FA012808BFEA
:102C100080BDBDE8804003F0FDBE000070B592B0FD
:102C200006AC20463021FDF760FC002543F640004D
:102C30000595CDE90355CDE901550095C4F2020093
:102C40000168022641F080510160006800F0805068
:102C50000090009847F200000095C4F2000001685F
:102C600041F480410160006800F4804000900098C9
:102C7000012006904FF4803007904FF480000D90B3
:102C800019200E904FF4A870CDE90F060420119082
:102C900020460C96FEF73EFA10B172B6FEE700BF72
:102CA0000F20CDE901064FF4A05004904FF480505E
:102CB000059001A805210395FEF7FAF810B172B648
:102CC000FEE700BF12B070BD4EF68850CEF2000095
:102CD000016841F4700101607047000040F2A420D7
:102CE000C2F20000FEF778BC10B540F6FF3E036864
:102CF000C4F2000E40F2004C7045C4F2010C25DC19
:102D0000B0F1804F2FD040F20042C4F20002904256
:102D100029D040F60002C4F20002904223D041F6CE
:102D2000FF72C4F20002904227DC70453ADCB0F139
:102D3000804F5BD040F20042C4F20002904255D076
:102D400040F60002C4F200024EE000BF40F600422E
:102D5000C4F20002904206D0604504D00022C4F2C2
:102D600001029042DBD14A6823F07003134341F61D
:102D7000FF72C4F200029042D7DD43F6FF72C4F244
:102D80000102904220DC42F20002C4F200029042B2
:102D90002CD00022C4F20102904227D0604525D0F9
:102DA00028E000BF40F60042C4F2000290421DD06D
:102DB00041F60002C4F20002904217D041F60042F0
:102DC000C4F2000210E000BF44F20002C4F20102AB
:102DD00090420BD044F60002C4F20102904205D0AA
:102DE00044F20042C4F20102904203D1CA6823F4C3
:102DF0004073134323F080024B69D1F800E08C68E4
:102E00001A430260C46240F48062C0F828E0624560
:102E100004BF09690163012141610169C90708BF54
:102E200010BD016921F00101016110BD806B00211D
:102E3000C185C184FEF78ABC806B01684A6990F83D
:102E40004130212B2DD112F080022AD00021C184E3
:102E5000016851E8031F026821F0C00142E8031332
:102E6000DBB1016851E8031F026821F0C00142E8AC
:102E7000031393B1016851E8031F026821F0C001F8
:102E800042E803134BB1016851E8031F026821F0C7
:102E9000C00142E80313002BDAD1202180F8411051
:102EA0000168496990F84220222A40F07D8011F0A3
:102EB000400179D00021C185016851E8031F0268F3
:102EC00021F4907142E80313BBB3016851E8031F7A
:102ED000026821F4907142E8031373B3016851E86A
:102EE000031F026821F4907142E803132BB30168B9
:102EF00051E8031F026821F4907142E80313002B8C
:102F0000DAD11AE0016851E8051F026821F00101D9
:102F100042E80513DBB1016851E8051F026821F0A2
:102F2000010142E8051393B1016851E8051F0268E9
:102F300021F0010142E805134BB1016851E8051F7A
:102F4000026821F0010142E80513002BDAD1016B80
:102F5000012924D1016851E8031F026821F0100102
:102F600042E80313DBB1016851E8031F026821F056
:102F7000100142E8031393B1016851E8031F02688E
:102F800021F0100142E803134BB1016851E8031F1F
:102F9000026821F0100142E80313002BDAD120214E
:102FA00080F8421000210163416C41F0100141643E
:102FB000FEF7CCBB0168806B0968C90548BFFEF706
:102FC00099BF0021C18400BF016851E8051F026854
:102FD00021F0800142E8051383B3016851E8051F21
:102FE000026821F0800142E805133BB3016851E813
:102FF000051F026821F0800142E80513F3B1016862
:1030000051E8051F026821F0800142E80513002BFA
:10301000DAD113E0016851E8031F026841F0400172
:1030200042E80313002B08BF7047016851E8031FF3
:10303000026841F0400142E8031393B1016851E88E
:10304000031F026841F0400142E803134BB10168DD
:1030500051E8031F026841F0400142E80313002BCE
:10306000D8D17047806BFEF747BF000081B090F861
:103070004210222921D183680246B3F5805F09D12D
:1030800052F8281F52F8183C002B63D003685B6885
:103090000AE000BF52F8281F13B90369002BF5D0CE
:1030A00003685B6803F07F030B70116801311160E6
:1030B000C18D01390A04C18502D001B0704700BF3B
:1030C0000168CA6822F02002CA60CA6822F48072CD
:1030D000CA604A6922F001024A61202180F8421048
:1030E00000214163026B012A3CD10163016851E870
:1030F000031F026821F0100142E80313DBB10168ED
:1031000051E8031F026821F0100142E8031393B154
:10311000016851E8031F026821F0100142E803131F
:103120004BB1016851E8031F026821F0100142E829
:103130000313002BDAD101680A68D20606D50022F3
:1031400000920A680092496800910099818D01B04F
:10315000FEF7FABA026852686FF35F2221F8022B79
:103160008162A5E701B0FEF765BE0000B0B5044678
:10317000006804F108030ECB0569194325F4405596
:103180002A4302616269E3691143C268194349F243
:103190000C639A431143C1604169A26921F44071F3
:1031A00041F20043114340F48062C4F201039A42A9
:1031B000416103D1FDF762FF02E000BFFDF74AFF66
:1031C000E1694FF69C7563681922C0F6FF75B1F589
:1031D000004FA0FB02011FD15A00DB0FFDF75AF888
:1031E00048F21F51C5F2EB11A0FB01235A0905F16A
:1031F000805302FB0300322303EBC000A0FB01015C
:103200004FF4F87000EA111000EB0210C1F3421104
:10321000084421688860B0BD9A009B0FFDF73AF81A
:1032200048F21F51C5F2EB11A0FB01235A0902FB22
:103230000500322303EB0010A0FB0101F02000EA9F
:10324000511000EB0210C1F343110844216888605B
:10325000B0BD000040F2EC20C2F20000FEF780BAE0
:10326000FEE7000010B582B003464FF0FF4040F289
:10327000EC2401908800C2F2000482B22046194674
:10328000FEF7DAFD2046FEF763FA2028FAD140F275
:10329000EC24C2F2000401A920460422FEF7CCFD72
:1032A0002046FEF755FA2028FAD102B010BD0000E2
:1032B0004EF60C50BFF34F8FCEF20000016804228F
:1032C00001F4E061C0F2FA5211430160BFF34F8F85
:1032D00000BF00BF00BF00BFFAE70000F0B587B035
:1032E00004464CF60220C0F6E3100DF10605CDF8B9
:1032F0000600682004212A4602F09CF814F04001E0
:103300004FF0A3006FF03F018DF8060008BF6FF08B
:103310005C016FF037026FF03D0308BF6FF05C0295
:1033200008BF6FF05C038DF8071014F4C0716FF0E4
:103330003B018DF808208DF8093008BF6FF05C0163
:103340006FF033026FF0390308BF6FF05C0208BF03
:103350006FF05C038DF80A104AF2A3318DF80B2050
:10336000ADF80D108DF80F0040F6A7200A212A466F
:103370008DF80C3002F05EF82020A60708BF6FF031
:1033800027008DF8060040F6B62001212A4602F0FB
:1033900051F8A0060CD4C720069048F6B000CCF235
:1033A000C35005904AF6B820CAF6AA200BE000BF29
:1033B0005D20069049F6B400C3F20D5005904AF620
:1033C000B820C8F6B350049004AA4FF497600921BE
:1033D00002F030F814F4C07F25D06FF04D016FF08B
:1033E000740214F4807008BF6FF04F0108BF6FF0D3
:1033F0007F026FF049036FF0640508BF6FF04B0365
:10340000002808BF6FF06F058DF806108DF80720B3
:103410000DF1060240F6A22004218DF808308DF847
:10342000095002F007F8E00708D1D8208DF806000F
:103430000DF106024FF40B60012150E0F8208DF8E9
:1034400006000DF106024FF40B60012101F0F2FFBE
:103450000720FA2100F052FA3F208DF8100004AA4C
:103460004FF4A470012101F0E5FF00208DF8100059
:1034700004AA40F24F10012101F0DCFF4FF4A050EC
:10348000ADF8100004AA4FF4EF70022101F0D2FF52
:103490004FF4C840ADF8100004AA4FF4ED700221BB
:1034A00001F0C8FF48F60060C9F2F900049004AAD0
:1034B0004FF4AE70042101F0BDFF4FF40060ADF891
:1034C000100004AA4FF4AD70022101F0B3FF4FF4D5
:1034D0000070ADF8100004AA4FF4AC70022101F0A6
:1034E000A9FF6FF02600002E58BF6FF027008DF85F
:1034F00006000DF1060240F23D70012101F09AFF35
:10350000600752BF4FF08B304CF2C020CCF2C46049
:10351000049004AA40F69820042101F08BFF00F0EB
:10352000DDFFE00652BF4FF0A33042F62000C3F6A5
:103530003000049004AA40F69E20042101F07AFF96
:1035400000F0CCFF40F2A01744F00800C2F20007E0
:103550006506B88000F0C2FF062000EAE57114F4A9
:10356000C07F18BF063114F0140F18BF1031002EA1
:1035700018BF04310020397007B0F0BD48F6DC41B7
:10358000C0F6000140F6F6304FF48062C82300F028
:1035900091BD00002DE9F04F89B040F2A01914460A
:1035A000DDE912B2C2F200090F468046002199F807
:1035B00000000DF1040AABF8001051461E4600F061
:1035C0002DFF28B14FF0FF3009B0BDE8F08F00BFEC
:1035D000B9F804C01CF0140F4ED09DF80520B64673
:1035E0009DF80410BDF8066012049DF8095042EAE7
:1035F000016132BA9DF8083041EA1242BDF80A6012
:1036000022602A0442EA036233BA42EA1343636047
:103610009DF80D309DF80C60BDF80E501B0443EA78
:1036200006632EBA43EA1646A6609DF811609DF81F
:10363000105011FB31F1360412FB3211BDF81200AB
:1036400046EA056613FB331116FB361100BA01F189
:10365000714146EA1040B1F1007FE0606AD8BBF8E2
:103660000000102140F480707646ABF800005FEA5D
:103670004C6005D421E000BF00215FEA4C601CD5FE
:103680000AEB01001AF80120437834468678C578A1
:1036900090F804E0407943EA02223A8045EA0622A3
:1036A00040EA0E207A80B880BBF80000264641F040
:1036B000060140F00800ABF800001CF4C07F18D0F1
:1036C0003AF801000AEB010200BA5388000CA8F88E
:1036D000000018BA9288000CA8F8020010BA000C7A
:1036E000A8F80400BBF80000063140F07000ABF809
:1036F00000005FEA8C7016D00AEB01056878EC7860
:10370000C10709D0D9F8082032B104F00700411CE4
:10371000C4F3C20090476878000704D5D9F80C10AC
:1037200009B1A0098847304600F0B2FB002009B07B
:10373000BDE8F08F00F0D2FE0020ABF800004FF0A3
:10374000FF3009B0BDE8F08F10B586B04AF6BB7106
:10375000CDF6DF7105914FF2AA11CDF6DF7104911C
:103760004FF2FE21CCF2AB41C828039118D8044691
:10377000C0B2C821B1FBF0F0002101388DF804106F
:103780008DF8050001AA40F21620022101F052FE38
:1037900030B903AA40F6C1200C2101F04BFE18B14C
:1037A0004FF0FF3006B010BD40F2E010C2F2000052
:1037B0000480002006B010BD80B586B04BF20941F0
:1037C0004BF2D812C0F2D901CFF2B93205914AF2C8
:1037D0008B3103924BF2DA42CBF29161C0F2DA0202
:1037E0000491CDE901124BF2DA11CFF2B93102287E
:1037F000009103D0012809D16A4600E003AA40F6EF
:1038000082200B2101F016FE06B080BD4FF0FF3084
:1038100006B080BDB0B582B0054648F67B41C0F623
:103820000001C5F3C10300F00300CC5C0A5C8DF815
:10383000054048F678448DF80420C5F38112C0F69F
:103840000004895C205C8DF806108DF80000E05CB7
:10385000A15C8DF801008DF8021001AA40F226400B
:10386000032101F0E7FD50BB6A4640F22A400321E4
:1038700001F0E0FD18BB45F23660C0F27600019021
:1038800044F22660C0F26600690700901CD4A806C6
:1038900022D4E80505D577208DF8060067208DF83D
:1038A000020001AA4FF48860032101F0C3FD30B982
:1038B0006A4640F23140032101F0BCFDB0B14FF047
:1038C000FF3002B0B0BD00BF37208DF804002720C4
:1038D0008DF80000A806DCD557208DF8050047209C
:1038E0008DF80100E805D6D4DBE700BF40F2DC101C
:1038F000C2F200000580002002B0B0BDB0B582B0B9
:103900000446B1F5C86F4FF0FF3045D814F00702F8
:1039100042D00DF103000D4600F00EFB9DF80300B0
:1039200002384FEA7000072865D8C1B28B2222FA0C
:1039300001F1C9075FD000EE105A9FED311AB8EEC1
:10394000400A80EE010A2FA101EB800191ED001ADF
:1039500034A101EB800090ED002A20EE011A20EE48
:10396000020ABDEEC00A10EE100ABDEEC10A10EE4A
:10397000101A0A0A8DF804208DF80510010A01AA10
:10398000951C8DF80610E1078DF8070006D1A007F9
:1039900012D4600720D4002002B0B0BD4FF4EA700A
:1039A000022101F047FD30BB4FF4927002212A46FC
:1039B00001F040FDF8B9EAE701AA4FF4EC700221EA
:1039C00001F038FDB8B94FF4947002212A4601F095
:1039D00031FD80B9DDE700BF01AA4FF4EE7002218E
:1039E00001F028FD38B94FF4967002212A4601F003
:1039F00021FD0028CFD04FF0FF3002B0B0BD00BF96
:103A00000000484300008046000000460000804659
:103A1000000080450000804600008046000080468F
:103A200000000045000040460000C0450000404640
:103A3000000040450000404600004046000040466F
:103A40000000C0442DE9F04F85B040F22807C2F2D3
:103A500000070C4605460120D7E90013ADF8080021
:103A60001878897C164602AB0222FEF797FF0028E1
:103A700040F0C280C820FDF731F80020D7E90012DD
:103A80008DF808001078C97B02AB0122FEF786FF93
:103A9000002840F0B180D7E9001002AB00784979E6
:103AA0000122FEF77BFF002840F0A680D7E9001036
:103AB00002AB0078897C0122FEF770FF002840F0FD
:103AC0009B80D7E9001002AB0078C97D0122FEF788
:103AD00065FF002840F09080D7E9001002AB007825
:103AE00009790122FEF75AFF002840F085800C205A
:103AF000D7E900128DF808001078097902AB01228D
:103B0000FEF74CFF002877D10F20FCF7E7FFB86ADB
:103B1000D7E90012407A89788DF80800107802AB56
:103B20000122FEF73BFF002866D1B86AD7E90012F0
:103B3000007A49788DF80800107802AB0122FEF770
:103B40002DFF002858D1B86AD7E90012807A002EDC
:103B500018BF40F0E0008DF808001078897902ABBA
:103B60000122FEF71BFF002846D12EB1B86AC07AA9
:103B700060F01F0001E000BF1820D7E900128DF8A7
:103B800008001078C97902AB0122FEF707FF98BB45
:103B900016B1C820FCF7A2FF4020D7E900128DF82B
:103BA00008001078097902AB0122FEF7F7FE18BB76
:103BB0007820D7E900128DF808001078497902AB17
:103BC0000122FEF7EBFEB8B93220FCF787FF002098
:103BD000D7E900128DF808001078497902AB01226C
:103BE000FEF7DCFE40B9D7E9001002AB0078897A15
:103BF0000222FEF799FE28B14FF0FF3005B0BDE874
:103C0000F08F00BFBDF808004AF6AB2100BA000CE7
:103C10004843C0F3C7420021002AC5E90011A9604A
:103C2000C4E900110192A16044D0C00C00260DF13E
:103C300008095FFA80FBD7E900100C220078C97AE6
:103C40004B46FEF771FE0028D6D1BDF80A10BDF82C
:103C50000800BDF80C2091FA81FEA16890FA80FC62
:103C600012BAD4E9003001EB224103EB2C4300EB04
:103C70002E40A160BDF81010C4E90030BDF812203C
:103C8000BDF80E0091FA81FCD5E9003192FA82FE6E
:103C9000AA68013600BA01EB2C48F1B203EB2040D0
:103CA00002EB2E4A5945C5E90008C5F808A0C2D361
:103CB00002E000BF95E80105C117090441EA10417F
:103CC000000483220023FCF75DFB019F00233A469A
:103CD000FCF758FB28604FEAE870000440EA1841FE
:103CE0004FEA084083220023FCF74CFB3A460023AE
:103CF000FCF748FB68604FEAEA70000440EA1A41AA
:103D00004FEA0A4083220023FCF73CFB3A4600239B
:103D1000FCF738FBA860D4E90006A568C117490183
:103D200041EAD06140013A460023FCF72BFB2060BA
:103D3000F017400140EAD66170013A460023FCF7D3
:103D400021FB6060E817400140EAD56168013A460E
:103D50000023FCF717FB01464FF480320029C4BF53
:103D60000022CFF6FF7211440020A16005B0BDE82B
:103D7000F08F000090F9001000290DDD002190F96E
:103D80000320002A10DD002290F90630002B13DDFD
:103D9000002011430843704718D490F901100029FE
:103DA0001EDD0121EBE700BF12D490F90420002AA8
:103DB0001EDD0822E8E700BF0CD490F90730002B85
:103DC0001EDD402011430843704700BF0421D6E7A1
:103DD0002022D9E74FF4807011430843704700BF99
:103DE00018D490F9021000291EDD0221C7E700BF98
:103DF00012D490F90520002A1CDD1022C4E700BF70
:103E00000CD490F9080000281ADD802011430843E3
:103E1000704700BF0521B2E72822B5E74FF4A07034
:103E200011430843704700BF4FF0060108BF072148
:103E3000A5E700BF4FF0300208BF3822A4E700BF5B
:103E40004FF4C07008BF4FF4E0701143084370474F
:103E5000FCF748FFFEF7E2FEFEF71CFEFEF7CCFD86
:103E6000FEF75AFE40F2140040F20C01C2F20000CC
:103E7000C2F20001FEF7B2FB0120FEF74DFD01F09A
:103E800031FBFEF7DDFD01F041FB00BFFEE7000066
:103E900070470000F0B581B040F22804C2F200047F
:103EA00094F8241011B1002001B0F0BDA27A5AB3E9
:103EB00000F0FE063240257C901B217D18BF4FF09C
:103EC000FF30002E227408BF002921D0617C99B9EF
:103ED0000121D4E900328DF802101278D97B0DF15E
:103EE0000203074610460122FEF758FD01463846F8
:103EF00011B99DF802106174E6B1064600F0EEFAC1
:103F000001463046B1B125744FF0FF3001B0F0BD2D
:103F100005460020D4E900128DF803001078C97B13
:103F20000DF103030122FEF739FD10B99DF80300DE
:103F30006074284601B0F0BD40F22801C2F20001D1
:103F40004A7A032A84BF4FF0FF30704740F20243A1
:103F5000D200C1F20803D3400370C97C29B140F6F6
:103F60000401C2F21001D14001700020704700002E
:103F700010B582B040F22804C2F200048020D4E9D7
:103F800000128DF801001078897C0DF101030122E7
:103F9000FEF704FDC8B96420FCF7A0FD0020D4E9B9
:103FA00000128DF801001078897C0DF101030122C7
:103FB000FEF7F4FC48B9D4E900100DF101030078D4
:103FC000897D0622FEF7B0FC20B14FF0FF3002B031
:103FD00010BD00BF9DF806209DF802009DF804105A
:103FE000042303EA820261F3410200F00100801819
:103FF00006D0012816D00228E7D1002013E000BF28
:10400000D4E900100DF101030078C9780122FEF710
:104010008BFC0028D9D19DF8010010F00F00D4D0FE
:104020000428EAD10120E0744FF6FF70E081FF2000
:104030002074A0744FF0FF30A0600020C4E9050098
:10404000E0612084C4F8230084F8270018208DF84C
:104050000700D4E900100122007889790DF10703E7
:10406000227384F82220FEF799FC0028ADD19DF838
:104070000700C0082072022000F0FEFE0028A4D134
:104080002A2001F073F800289FD1322001F0BCF8FB
:1040900000289AD10020FFF7FDFE002895D10020CE
:1040A00000F022FF002890D1002001F051F90020FB
:1040B00002B010BD2DE9F04F89B0054600294FF040
:1040C000FF3000F08C8040F2280BC2F2000B0E464D
:1040D0009BF82510002940F08280002DCDE90032A8
:1040E00063D04FF000080DF1120ACDE90256A5EB9E
:1040F000080087B29BF80A00102F28BF102700285D
:1041000061D0DBF8040057FA88F142891FFA81F97F
:1041100098FA88F191454FEA1141ADF8221052D832
:10412000DBF800100078097E02220DF12203FEF771
:1041300035FC002847D1DBE9001016FA88F5007835
:10414000497DFEB232462B465C46FEF727FCD0BBCB
:10415000A07AC0B360681FFA88F142892346090A31
:1041600091458DF822108DF823802CD8196800789D
:10417000097E02220DF12203FEF710FC18BBDBE9D9
:10418000001032460078497D5346FEF7CDFBD0B98A
:10419000284651463A46FCF72FF918BBB844029D11
:1041A0001FFA88F0039EA842A1D30198DBE9001210
:1041B00040BAADF822001078897E0DF12203022268
:1041C000FEF7ECFB20B14FF0FF3009B0BDE8F08FF7
:1041D00001208BF825000098ABF82600002009B0DC
:1041E000BDE8F08F6FF0010009B0BDE8F08F00006E
:1041F000282884BF4FF0FF30704770B584B040F27C
:1042000028040028C2F2000448D094F823100129A1
:1042100021D00546A07C94F822103222002808BF45
:1042200030228DF80A2039B16FF04D01002808BF07
:104230006FF04F018DF80A10D4E900100DF10A0358
:104240000078097D01220126FEF7A8FB00282846F8
:1042500008BF84F82360202101288DF8071057D16A
:10426000A07A002100288DF8081000F09D80E07AE7
:10427000062106288DF80B1000F09680D4E9001076
:104280000DF10B03007889780122FEF787FB0028E7
:1042900040F08A809DF80B0085E000BF94F8230071
:1042A00000B3A07C94F822100246002818BF012217
:1042B00052008DF8092039B16FF07D01002808BF48
:1042C0006FF07F018DF80910D4E900100DF109039A
:1042D0000078097D0122FEF761FB002804BF002061
:1042E00084F823004FF4E060D4E90012ADF8070031
:1042F0001078897C0DF107030222FEF74FFB00289E
:1043000006BF002020754FF0FF3004B070BD00BF25
:10431000052817D8A07A012100288DF8081043D06D
:10432000E07A062106288DF80C103DD0D4E9001063
:1043300003AB007889780122FEF730FBA0BB9DF823
:104340000C0030E0142817D8A07A02218DF808104C
:1043500050B3E07A052105288DF80D1024D0D4E95A
:1043600000100DF10D03007889780122FEF716FB8D
:10437000D0B99DF80D0016E0A07A03218DF8081041
:1043800090B1E07A042104288DF80E100CD0D4E905
:1043900000100DF10E03007889780122FEF7FEFA75
:1043A00010B99DF80E00E0729DF80800D4E90012E3
:1043B000800107308DF808001078897C0DF1070323
:1043C0000222FEF7EBFA18B14FF0FF3004B070BDD7
:1043D00094F824100820A072002000294FF0010159
:1043E000207321757FF491AF617C207411B100209E
:1043F00004B070BD0120D4E900128DF80F001078D0
:10440000C97B0DF10F030122FEF7C8FA0028EED197
:104410009DF80F006074002004B070BD2DE9F041DC
:1044200082B040F22807C2F2000797F82430044611
:10443000002B4FF0FF3045D0BB7A002B42D00D4609
:10444000D7E9001016460078897A0DF1060302229A
:10445000FEF76AFA20B14FF0FF3002B0BDE8F081FC
:10446000BDF8061008BAB4EB104F07D90020307021
:104470004FF0FF3002B0BDE8F08100BF786891FADC
:1044800091F84288B8EB520F0ED939680078497C10
:104490000DF106030122FEF747FA0028DBD19DF853
:1044A0000600C00612D4786839680078C97AE2B28A
:1044B0002B46FEF739FA0028CDD1B8FBF4F00138CD
:1044C0003070002002B0BDE8F08100BF00F006F8B7
:1044D0006FF0010002B0BDE8F081000010B582B0BD
:1044E00040F22804C2F20004A07A00B30020D4E90C
:1044F00000128DF807001078C97B0DF10703012227
:10450000FEF74CFA98B9D4E900100DF107030078D2
:1045100049790122FEF742FA48B9D4E900100DF1B9
:104520000703007809790122FEF738FA20B14FF02D
:10453000FF3002B010BD00BF94F82400002841D025
:104540000C20D4E900128DF80700107809790DF1DC
:1045500007030122FEF722FA0028E8D13220FCF7F7
:10456000BDFAA07A0DF10703C0076FF01F0008BF66
:104570006FF03F00D4E900128DF807001078097938
:104580000122FEF70BFA0028D1D1607C0DF1070360
:10459000002818BF01204000D4E900128DF8070060
:1045A0001078C97B0122FEF7F9F90028BFD100205D
:1045B000D4E900128DF80700107849790DF107034E
:1045C00040E000BF0420D4E900128DF80700107805
:1045D00009790DF107030122FEF7E0F90028A6D1C1
:1045E000A07AA17CC0074FF0600008BF40200029DE
:1045F00018BF4020D4E900128DF80700107809791F
:104600000DF107030122FEF7C9F900288FD13220EE
:10461000FCF764FA607C0DF10703002818BF012045
:10462000D4E900128DF807001078C97B0122FEF74B
:10463000B5F900287FF47BAFD4E9001004F1100332
:10464000007849790122FEF7A9F900287FF46FAFBD
:10465000002002B010BD00002DE9F04F81B02DED1B
:10466000028B8EB040F2280AC2F2000A9AF8242087
:104670008B460546069212B1002000F0ADFC9AF878
:10468000080003280CD848F69E41C0F6000131F816
:10469000100005909AF80900032807D9002012E0BD
:1046A000002005909AF809000328F7D80FF28C72C1
:1046B0009AF8133002EB80020FF27071002B08BFE2
:1046C00001EB800210689AF80B800490A8F10100B9
:1046D0009AF80A409AF810700628BAF80E60284630
:1046E00059464FF0000228BF4FF00608FFF7AAF91D
:1046F00048B12846594600224FF00009FFF7A2F9B9
:10470000002840F003830AA807A90122A946FFF761
:1047100099F948B10AA807A90122FFF793F918B13E
:104720004FF00009F2E200BFDAF804000DAB0078A8
:104730000D210422FEF7F8F80397CDE9016428B3B0
:10474000DBF8000007999FEDB48A401A48BF404249
:1047500003EE100AB8EE433AB5EE401A4D46F1EEBC
:1047600010FA23EE083A45D083EE011ABFEE003A64
:1047700031EE031A9FEDDE3AB0EEC11AB4EE431AE1
:10478000F1EE10FACCBF0126002649E09DF8340076
:104790009DF835209DF837709DF836301C219FED2F
:1047A000D50A01EAD005C7F3011C01EAD204C7F318
:1047B00081001CEB050E04EB000201EAD30607F0B2
:1047C0000307B0EE401A00F00E81BEF1010300F0C5
:1047D000DB8045EA0C0113F00305A1F1020C00F0A7
:1047E000DB80012D40F0E0809FEDE11AAEF1020385
:1047F000E9E000BF9FEDDF1A0020B4EE413A9FEDE3
:10480000DE1AF1EE10FA4FF00001B4EE413AB8BFF3
:104810000121F1EE10FAC8BF0120084300F00106A3
:10482000DBF804000899B5EE402A401A48BF404220
:1048300001EE100AB8EE411AF1EE10FA21EE081A54
:1048400010D081EE021ABFEE002A31EE021A9FED5F
:10485000A82AB0EEC11AB4EE421AF1EE10FAC8BF9F
:10486000023614E09FEDC42A0020B4EE421A9FEDF8
:10487000C12A3146F1EE10FAC8BF012060F34101B0
:10488000B4EE421AF1EE10FAB8BFB11C0E46DBF8D6
:1048900008000999B5EE400A401A48BF404201EEAF
:1048A000100AB8EE411AF1EE10FA21EE081A11D0F2
:1048B00081EE000ABFEE001A30EE010A9FED8C1A5D
:1048C000B0EEC00AB4EE410AF1EE10FAC8BF0436E9
:1048D00015E000BF9FEDA80A0020B4EE401A9FED3E
:1048E000A50A3146F1EE10FAC8BF012060F382013B
:1048F000B4EE401AF1EE10FAB8BF311D0E46DAF8E8
:1049000004000DAB00780D210322FEF70DF808B16D
:104910000720F0E128680A999DF83420401A48BF22
:10492000404200EE100A02F01F039DF835209DF86A
:104930003610B8EE400A20EE080A6BB1581E27D098
:1049400010F00304A3F102052AD0012C6AD19FEDD7
:10495000CE1A284674E000BFB2EE041AB4EE410A43
:104960009FEDCA1A0020F1EE10FA4FF00003B4EEEA
:10497000410AB8BF0123F1EE10FAC8BF0120184365
:1049800000F001007EE000BF9FEDC11A2BE000BFE8
:10499000B3EE091A65E000BF9FEDBD1A13E000BF3A
:1049A000B3EE091A4CE000BF6FF00301022D0FF2C5
:1049B000A44308BF6FF00201022D08BF043393ED3A
:1049C000001A0EEB0103BCF1030F0CD39FEDB12ACB
:1049D00021EE021A21EE021A21EE021A043B1906F8
:1049E00021EE021AF4D1F319002AB0EE402A00F0A9
:1049F000A480511E0CD0204311F00305A0F1020049
:104A00000CD0012D7CD19FED5A2A911E85E000BF6C
:104A10009FED9F2A91E000BF000080379FED9C2A08
:104A20007BE000BF6FF00300022C0FF23C4708BF91
:104A30006FF00200022C08BF043797ED001A1844EB
:104A4000032D4D460DD39FED942A00BF21EE021A8F
:104A500021EE021A21EE021A0438030621EE021A90
:104A6000F4D180EE010ABFEE001A30EE010A9FED8C
:104A7000201AB0EEC00AB4EE410AF1EE10FACCBF33
:104A8000012000206B680B9F02F01F05DB1B48BF55
:104A90005B4200EE103AB8EE400A20EE080A6DB113
:104AA0006A1E21D012F00304A5F1020324D0012CC8
:104AB00064D19FED751A1A466DE000BF9FED731A21
:104AC0000022B4EE410A0346B2EE041AF1EE10FAE7
:104AD000C8BF012262F34103B4EE410AF1EE10FABD
:104AE000B8BF831C184676E0B3EE091A63E000BF36
:104AF000295C0F3E00000000B3EE091A4BE000BF36
:104B00006FF00301022D08BF6FF00201022DD1A545
:104B100008BF043595ED002A114403280DD39FEDFD
:104B2000CF3A00BF22EE032A22EE032A22EE032A06
:104B30000439080622EE032AF4D1002B3FF400AE1C
:104B4000581E0DD046EA070110F00302A1F1020140
:104B50000AD0012A7AD19FEDBE0A981E83E000BFD9
:104B60009FEDBA0AECE500BF9FEDB80A7BE000BFFD
:104B7000ADFFB33E9A99993E3333733F6FF0030212
:104B8000022CB9A708BF6FF00202022C08BF04373D
:104B900097ED001A2A44032B0DD39FEDB52A00BFD1
:104BA00021EE021A21EE021A21EE021A043A13062D
:104BB00021EE021AF4D180EE010ABFEE001A30EEA7
:104BC000010A9FEDA71AB0EEC00AB4EE410AF1EE59
:104BD00010FAC8BF0230D9F808200C9BD21A48BF7F
:104BE000524200EE102A01F01F03B8EE400A20EEF8
:104BF000080A6BB1591E21D011F00307A3F102027C
:104C000020D0012F4AD19FED971A114653E000BFE3
:104C10009FED981A0021B4EE410A0246B2EE041A42
:104C2000F1EE10FAC8BF012161F38202B4EE410A2D
:104C3000F1EE10FAB8BF021D10465CE0B3EE091A9F
:104C400049E000BFB3EE091A35E000BF6FF0030082
:104C5000022A08BF6FF00200022A7EA208BF0432B7
:104C600092ED000A18440329FFF46AAD9FED7B3AE8
:104C700020EE030A20EE030A20EE030A04380106A0
:104C800020EE030AF4D15BE53333D1410000D24278
:104C90007B14AE3E1D5A843F54E3853F6FF0030101
:104CA000022F08BF6FF00201022F6FA708BF043761
:104CB00097ED001A1944032A0DD39FED6D2A00BF0A
:104CC00021EE021A21EE021A21EE021A04390A0616
:104CD00021EE021AF4D180EE010ABFEE001A30EE86
:104CE000010A9FED5F1AB0EEC00AB4EE410AF1EE80
:104CF00010FAC8BF0430B0FA80F04FEA5019002E05
:104D000008BF09F10209039FDDE901644FF6FF7056
:104D1000AAF80E00FF2005998AF810004FF0FF3026
:104D2000CAF808000120B1F57A7F8AF80C0007DA8A
:104D3000FA290BD0B1F5FA7F1FD1082009E000BF96
:104D400006D0B1F5FA6F18D1182002E0002000E07B
:104D50001020DAE900128DF83400107889790DAB53
:104D60000122FDF71BFE20B99DF83400C0088AF827
:104D700008009AF80A00002842D004996FF0010058
:104D800050FA81F04FEA7000072823D8C1B28B2275
:104D900022FA01F1C9071DD048F6AE4248F6A641F5
:104DA000C0F60002C0F60001125C9AF80930085CF7
:104DB00093428DF834000DD0DAE900100DAB007885
:104DC000C9790122FDF7EAFD20B99DF83400C00839
:104DD0008AF809009AF80A0090B19AF80B008DF849
:104DE000348040450CD0DAE900100DAB00788978AA
:104DF0000122FDF7D3FD18B99DF834008AF80B00A5
:104E0000304600F001FA204600F0A2FA3846FFF7DB
:104E100041F8069810B1012000F0DEF848460EB0C7
:104E2000BDEC028B01B0BDE8F08F00BF02000000B6
:104E30000400000008000000100000000400000052
:104E40000800000010000000200000007B14AE3EAF
:104E5000ADFFB33E5E72C03E631EBA3E1D5A843F34
:104E6000295C0F3E3333D1419AE3E441BDD2DA41AC
:104E700054E3853F0000D24210B582B040F22804CE
:104E8000C2F20004A17A19B302384FEA7000072871
:104E90001ED8C1B28B2222FA01F1C90718D048F6F8
:104EA000AE4248F6A641C0F60002C0F60001125C10
:104EB000637A085C93428DF8070011D0D4E90010A2
:104EC0000DF107030078C9790122FDF767FD18B1DC
:104ED0004FF0FF3002B010BD9DF80700C0086072AF
:104EE000002002B010BD0000B0B582B040F228052D
:104EF000C2F20005A97C814202D1002002B0B0BDFF
:104F00000446D5E900100DF1070300780979012264
:104F1000FDF70AFD94B3002846D19DF80700D5E9B6
:104F2000001200F0DF008DF80700107809790DF10C
:104F300007030122FDF732FDB0BB0320FBF7CEFDD6
:104F400095F8221095F823206FF07D00002908BF06
:104F500002208DF807001AB140F030008DF80700EC
:104F6000D5E900100DF107030078097D0122FDF756
:104F700015FDC8B9AC74002002B0B0BDA0B99DF851
:104F80000700A97A00F0DF0001F0010140EA4110BA
:104F9000D5E900128DF80700107809790DF10703A3
:104FA0000122FDF7FBFC18B14FF0FF3002B0B0BD9D
:104FB0000320FBF793FD95F8220095F82310024695
:104FC00000281CBF01226FF07F00D20100298DF85C
:104FD0000720C1D1C4E70000B0B582B040F2280478
:104FE000C2F2000494F8241081425DD0D0B394F84A
:104FF000250000285CD009B9A07A78B10020D4E956
:1050000000128DF805001078C97B0DF1050301220F
:10501000FDF7C4FC10B99DF8050060740020002560
:10502000FFF762FFE08C00F0EFF860688DF8045045
:10503000007801AB232101220125FDF7AFFC0220FE
:10504000D4E900128DF806001078C97B0DF1060333
:10505000012284F82450FDF7A1FC18BB9DF806003E
:1050600060741FE009B9A07A78B10020D4E9001279
:105070008DF807001078C97B0DF107030122FDF7B9
:105080008DFC10B99DF807006074207C61688DF874
:105090000400087801AB23210122FDF77FFC0020EA
:1050A00084F82400FFF71AFA002002B0B0BD00BF58
:1050B0004FF0FF3002B0B0BD10B582B040F228040E
:1050C000C2F20004A17AD1B30146B0F57A7F4FF065
:1050D000FF300DDAFA2919D0B1F5FA7F39D1012064
:1050E0000821227A8DF8071082421ED130E000BFDD
:1050F000B1F57A7F12D0B1F5FA6F2AD103201821C9
:10510000227A8DF8071082420FD121E00021002081
:10511000227A8DF80710824207D119E0022010216F
:10512000227A8DF80710824212D0D4E900100DF1D6
:105130000703007889790122FDF730FC20B14FF098
:10514000FF3002B010BD00BF9DF80700C0082072FC
:10515000002002B010BD000040F228020146C2F259
:105160000002002082F822107047000010B582B0C3
:1051700040F22804C2F20004A17AD1B3BB2807D9B7
:105180000121E07A8DF80710884228D139E000BF6C
:10519000612807D90221E07A8DF8071088421ED1D4
:1051A0002FE000BF292807D90321E07A8DF80710E6
:1051B000884214D125E000BF132807D90421E07AE2
:1051C0008DF8071088420AD11BE000BF062109288C
:1051D00088BF0521E07A8DF80710884211D0D4E904
:1051E00000100DF10703007889780122FDF7D6FB46
:1051F00020B14FF0FF3002B010BD00BF9DF8070096
:10520000E072002002B010BDB0B582B040F22804B8
:10521000C2F20004A17A00294FF0FF3162D094F865
:105220002420002A5ED1217D002941D0411E89B26F
:10523000272907D8C0B2FEF7DBFF0021084602B0DD
:10524000B0BD00BF054694F8230000B3A07C94F8DD
:1052500022100246002818BF012252008DF80620B5
:1052600039B16FF07D01002808BF6FF07F018DF824
:105270000610D4E900100DF106030078097D012223
:10528000FDF78CFB002804BF002084F823004FF4B6
:10529000E060D4E90012ADF804001078897C01AB1D
:1052A0000222FDF77BFB002804BF00202075284662
:1052B0004FF47A75B0F57A7F28BF2846042898BF46
:1052C0000420B5FBF0F0D4E9001201388DF803009A
:1052D000107849780DF103030122FDF75FFB28B137
:1052E0004FF0FF31084602B0B0BD00BF9DF803107B
:1052F000A27A481CB5FBF0F0E0812AB3022901D262
:1053000001200FE0052901D202200BE00B2901D278
:10531000032007E0192901D2042003E006203229E6
:1053200038BF0520E17A8DF8070081420CD0D4E91E
:1053300000100DF10703007889780122FDF72EFB9C
:1053400010B99DF80700E0720021084602B0B0BD18
:1053500070B582B00446B0FA80F040F228054009EA
:105360000121C2F2000514F0700F08BF8101D5E9D8
:1053700000208DF806100078917C0DF106030122C3
:105380000126FDF70BFBF0B9042121EA141104F00A
:1053900010029DF8060086EA1212A30658BF0231D9
:1053A0001144220758BF38318DF80610D5E9001294
:1053B00000F0BF031078C97C2B730DF106030122A6
:1053C000FDF7ECFA30B10020A8724FF0FF3002B0C8
:1053D00070BD00BF14F0F70F23D095F8230000B381
:1053E000A87C95F822100246002818BF012252001E
:1053F0008DF8072039B16FF07D01002808BF6FF0EC
:105400007F018DF80710D5E900100DF10703007832
:10541000097D0122FDF7C2FA002804BF002085F8AB
:105420002300002028753220AC72FBF757FB0020C8
:1054300002B070BD0346002A4FF0FF3008BF70472E
:1054400070B582B040F22805C2F20005AE7A56B1BE
:1054500068685EBA448951FA83F3A342ADF80660E6
:1054600006D94FF0FF3002B0BDE87040704700BF72
:105470000E4629680078097E14460DF106030222C3
:10548000FDF78CFA30B14FF0FF3002B0BDE870404C
:10549000704700BFD5E90010F2B20078497D23467D
:1054A000FDF77CFA002818BF4FF0FF3002B0BDE8CE
:1054B00070407047EFF3058100291CBF6FF00500B5
:1054C0007047002804BF0020704780B500F0C8FF77
:1054D000002080BDEFF30580002808BF01F06ABE00
:1054E00001F06EBEEFF3058000281CBF6FF00500D1
:1054F000704740F2D810C2F200000168002911BFC5
:105500004FF0FF300121016000207047EFF305806C
:1055100000281CBF6FF00500704740F2D810C2F29F
:105520000000016801291CBF4FF0FF30704780B5B3
:105530004EF61F51CEF2000100220A7002210160D6
:1055400001F0BEF8002080BDF0B585B08C46002388
:105550000493EFF30581B0B3A9BB2AB39469002C7F
:1055600008BF1824382C2ED81179C9072BD15669B9
:10557000D2E902574FEA960E1168002E734608BF13
:1055800080231DB35C2F25D312690023002A18BF86
:10559000002E18D0CDE9004272466346029501F014
:1055A000BDFD05B0F0BD00BF80231824002104AF6D
:1055B0009AB26346CDE9004701F080FD00230499CB
:1055C000012808BF0B46184605B0F0BD17B912698F
:1055D000002AECD00023184605B0F0BD2DE9F041BB
:1055E000044600F0F1FD40F2C406C2F20006F06885
:1055F00040F260450130F0603068C2F2000558B1F9
:105600003069002840F007813068E16AC06A88424A
:1056100098BF3460FFE000BF3460F068012840F0BC
:10562000FA80284600F076FD05F1140000F072FDC6
:1056300005F1280000F06EFD05F13C0000F06AFD68
:1056400005F1500000F066FD05F1640000F062FD18
:1056500005F1780000F05EFD05F18C0000F05AFDC8
:1056600005F1A00000F056FD05F1B40000F052FD78
:1056700005F1C80000F04EFD05F1DC0000F04AFD28
:1056800005F1F00000F046FD05F5827000F042FDE6
:1056900005F58C7000F03EFD05F5967000F03AFDC2
:1056A00005F5A07000F036FD05F5AA7000F032FD9A
:1056B00005F5B47000F02EFD05F5BE7000F02AFD72
:1056C00005F5C87000F026FD05F5D27000F022FD4A
:1056D00005F5DC7000F01EFD05F5E67000F01AFD22
:1056E00005F5F07000F016FD05F5FA7000F012FDFA
:1056F00005F5027000F00EFD05F5077000F00AFDDB
:1057000005F50C7000F006FD05F5117000F002FDC6
:1057100005F5167000F0FEFC05F51B7000F0FAFCB4
:1057200005F5207000F0F6FC05F5257000F0F2FCA0
:1057300005F52A7000F0EEFC05F52F7000F0EAFC8C
:1057400005F5347000F0E6FC05F5397000F0E2FC78
:1057500005F53E7000F0DEFC05F5437000F0DAFC64
:1057600005F5487000F0D6FC05F54D7000F0D2FC50
:1057700005F5527000F0CEFC05F5577000F0CAFC3C
:1057800005F55C7000F0C6FC05F5617000F0C2FC28
:1057900005F5667000F0BEFC05F56B7000F0BAFC14
:1057A00005F5707000F0B6FC05F5757000F0B2FC00
:1057B00005F57A7000F0AEFC05F57F7000F0AAFCEC
:1057C00005F5826000F0A6FC05F2244000F0A2FC82
:1057D00005F5876000F09EFC05F24C4000F09AFC55
:1057E00040F2B018C2F20008404600F093FC08F105
:1057F0001407384600F08EFC06F1640000F08AFCC5
:1058000006F13C0000F086FC06F1500000F082FC3E
:10581000C6F81C8037627068716A421CE06A726068
:105820008842626488BF706200EB800005EB8000F4
:10583000211D00F0B1FC00F0EBFC306988B130684C
:10584000E16AC06A884228BFBDE8F0814EF6045084
:10585000CEF200004FF080510160BFF34F8FBFF3D5
:105860006F8FBDE8F081000040F2C40540F2604651
:105870004EF60458C2F20005C2F20006CEF200084D
:105880004FF0805703E000BF204600F0D9FCA86825
:10589000D0B100F099FCA86CC468201D00F00CFC8D
:1058A000E8680138E860A8680138A86000F0B0FC3A
:1058B00094F859000228EAD00128E5D070B9206B8D
:1058C00000F0BEFCE0E700BF30680228DFD3C8F874
:1058D0000070BFF34F8FBFF36F8FD8E74FF05000CA
:1058E00080F31188BFF36F8FBFF34F8FFEE7000087
:1058F0002DE9F0470A9C8246206B16460F46DDE9EB
:1059000008599100A5229846FAF7E7FD206B002F71
:1059100000EB8600A0F1040020F0070644D03878A0
:1059200084F83400D8B3787884F83500B8B3B87800
:1059300084F8360098B3F87884F8370078B338796B
:1059400084F8380058B3787984F8390038B3B879D6
:1059500084F83A0018B3F87984F83B00F8B1387A43
:1059600084F83C00D8B1787A84F83D00B8B1B87AB0
:1059700084F83E0098B1F87A84F83F0078B1387B1B
:1059800084F8400058B1787B84F8410038B1B87B86
:1059900084F8420000281CBFF87B84F843000020F4
:1059A00084F8430003E000BF002084F8340000279F
:1059B000201D372D28BF3725E562C4E9135700F0B5
:1059C000B5FB04F1180000F0B1FBC5F13800A0618F
:1059D00030465146424624616462676584F85870D7
:1059E00000F028FBB9F1000F206018BFC9F8004093
:1059F000BDE8F08708480068006880F308884FF029
:105A0000000080F3148862B661B6BFF34F8FBFF316
:105A10006F8F00DF00BF000008ED00E081B00020C4
:105A2000009040F25400C2F2000000684FF05001B4
:105A300081F31188BFF36F8FBFF34F8F013007D011
:105A4000FEE700BF009830B9009820B9009810B95F
:105A500000980028F6D001B07047000088B040F2EE
:105A60003C1AC2F2000A0DF11009EB46DAF8080000
:105A700005681DB1C068046801E000BF002400F0A3
:105A800097FE01F097FBDAF810100646884220D303
:105A9000002DCAF8106051D0B4424FD801F09EFCDE
:105AA000DAF80800C068C7683D1D284600F004FB0E
:105AB00097F82800410745D400F0FA0087F828003D
:105AC00082E000BF7860DAF8080029463F6100F004
:105AD00031FBDAF80800016831B3C068C7680468B0
